:020000040800F2
:10000000600600206D0100087501000877010008F6
:10001000790100087B0100087D0100080000000054
:100020000000000000000000000000007F01000848
:10003000810100080000000083010008850100081C
:100040008701000887010008870100088701000870
:100050008701000887010008870100088701000860
:100060008701000887010008870100088701000850
:100070008701000887010008870100088701000840
:100080008701000887010008870100088701000830
:100090008701000887010008870100088701000820
:1000A0008701000887010008870100088701000810
:1000B0008701000887010008870100088701000800
:1000C00087010008870100088701000887010008F0
:1000D00087010008870100088701000887010008E0
:1000E00087010008870100088701000800F002F876
:1000F00000F02CF80AA090E8000C82448344AAF196
:100100000107DA4501D100F021F8AFF2090EBAE893
:100110000F0013F0010F18BFFB1A43F0010318473B
:10012000DC050000EC05000000230024002500266B
:10013000103A28BF78C1FBD8520728BF30C148BF4A
:100140000B6070471FB51FBD10B510BD00F031F832
:100150001146FFF7F7FF00F0B5FA00F04FF803B4CF
:10016000FFF7F2FF03BC00F057F800000948804792
:1001700009480047FEE7FEE7FEE7FEE7FEE7FEE789
:10018000FEE7FEE7FEE7FEE704480549054A064BA1
:100190007047000049060008ED00000860000020DC
:1001A0006006002060020020600200207047704757
:1001B0007047754600F02CF8AE4605006946534678
:1001C00020F00700854618B020B5FFF7DDFFBDE839
:1001D00020404FF000064FF000074FF000084FF0AE
:1001E000000B21F00701AC46ACE8C009ACE8C0093F
:1001F000ACE8C009ACE8C0098D46704710B50446AC
:10020000AFF300802046BDE81040FFF7A8BF000014
:10021000004870470000002001491820ABBEFEE7EF
:1002200026000200704710B50A4600210379072B0B
:100230007DDC03796BB9417903685B680B43046823
:10024000636000218379990003685B680B4304684D
:1002500063600379012B0ED14379190103685B6850
:100260000B430468636000218379990103685B682C
:100270000B43046863600379022B0ED143791902A2
:1002800003685B680B43046863600021837999020B
:1002900003685B680B43046863600379032B0ED12A
:1002A0004379190303685B680B43046863600021AA
:1002B0008379990303685B680B430468636003797F
:1002C000042B0ED14379190403685B680B4304685F
:1002D000636000218379990403685B680B430468B9
:1002E00063600379052B0ED14379190503685B68B8
:1002F0000B430468636000218379990503685B6898
:100300000B43046863600379062B0ED14379190609
:1003100003685B680B430468636000218379990676
:1003200003685B680B4304686360037900E011E0D5
:10033000072B0ED14379190703685B680B430468E8
:10034000636000218379990703685B680B43046845
:10035000636094E00379072BFBDD03790F2BF8DC56
:100360000379082B0DD1417903685B680B4304685E
:10037000636000218379990003685B680B4304681C
:1003800063600379092B0ED14379190103685B6817
:100390000B430468636000218379990103685B68FB
:1003A0000B430468636003790A2B0ED14379190269
:1003B00003685B680B4304686360002183799902DA
:1003C00003685B680B430468636003790B2B0ED1F1
:1003D0004379190303685B680B4304686360002179
:1003E0008379990303685B680B430468636003794E
:1003F0000C2B0ED14379190403685B680B43046826
:10040000636000218379990403685B680B43046887
:10041000636003790D2B0ED14379190503685B687E
:100420000B430468636000218379990503685B6866
:100430000B430468636003790E2B0ED143791906D0
:1004400003685B680B430468636000218379990645
:1004500003685B680B430468636003790F2B0ED15C
:100460004379190703685B680B43046863600021E4
:100470008379990703685B680B430468636010BD68
:1004800006E0284A926942F00402264B9A6104E091
:10049000012902D1244A9042F3D000BF06E0214A4C
:1004A000926942F008021F4B9A6104E0012902D1CF
:1004B0001E4A9042F3D000BF06E01A4A926942F009
:1004C0001002184B9A6104E0012902D1184A9042A7
:1004D000F3D000BF06E0134A926922F00402114BE8
:1004E0009A6103E011B9104A9042F4D000BF06E0CF
:1004F0000C4A926922F008020A4B9A6103E011B992
:100500000A4A9042F4D000BF06E0064A926922F0FF
:100510001002044B9A6103E011B9054A9042F4D0ED
:1005200000BF70470010024000080140000C01406D
:100530000010014030B504460D46E0680121A94095
:100540000843E0604FF47A7000F0AEF8E1680120F3
:10055000A8408143E1604FF47A7000F0A5F830BD07
:1005600010B500F001F810BD0CB50020019000900E
:100570003348006840F480303149086000BF30489B
:10058000006800F4003000900198401C0190009831
:1005900018B90198B0F5A06FF1D12948006800F4AE
:1005A000003010B10120009001E000200090009880
:1005B000012843D12348006840F010002149086019
:1005C0000846006820F0030008600846006840F014
:1005D000020008601A4840681949486008464068A7
:1005E00048600846406840F48060486008464068BB
:1005F00020F47C1048600846406840F4E8104860E9
:100600000846006840F08070086000BF0C48006831
:1006100000F000700028F9D00948406820F003007D
:10062000074948600846406840F00200486000BF43
:100630000348406800F00C000828F9D10CBD000008
:10064000001002400020024010B51348006840F03E
:1006500001001149086008464068104908400E49E9
:100660004860084600680E4908400B490860084683
:10067000006820F4802008600846406820F4FE00EE
:1006800048604FF41F008860FFF76AFF4FF000607A
:100690000449086010BD0000001002400000FFF88F
:1006A000FFFFF6FE08ED00E0002107E0002200E079
:1006B000521C42F6F8239A42FAD3491C8142F5D3E0
:1006C000704700001CB50C4800900D208DF8040008
:1006D00002218DF8051000218DF806100121064831
:1006E000FFF7CEFE0D216846FFF79DFD03E00D21CB
:1006F0000148FFF71FFFFAE7001001400C07000850
:0C07000000000020600600002801000836
:040000050800016D81
:00000001FF
